{
  "contractName": "Trust",
  "abi": [
    {
      "inputs": [],
      "stateMutability": "nonpayable",
      "type": "constructor"
    },
    {
      "inputs": [],
      "name": "admin",
      "outputs": [
        {
          "internalType": "address",
          "name": "",
          "type": "address"
        }
      ],
      "stateMutability": "view",
      "type": "function"
    },
    {
      "inputs": [
        {
          "internalType": "address",
          "name": "",
          "type": "address"
        }
      ],
      "name": "kids",
      "outputs": [
        {
          "internalType": "uint256",
          "name": "amount",
          "type": "uint256"
        },
        {
          "internalType": "uint256",
          "name": "maturity",
          "type": "uint256"
        },
        {
          "internalType": "bool",
          "name": "paid",
          "type": "bool"
        }
      ],
      "stateMutability": "view",
      "type": "function"
    },
    {
      "inputs": [
        {
          "internalType": "address",
          "name": "kid",
          "type": "address"
        },
        {
          "internalType": "uint256",
          "name": "timeToMaturity",
          "type": "uint256"
        }
      ],
      "name": "addKid",
      "outputs": [],
      "stateMutability": "payable",
      "type": "function"
    },
    {
      "inputs": [],
      "name": "withdraw",
      "outputs": [
        {
          "internalType": "uint256",
          "name": "",
          "type": "uint256"
        }
      ],
      "stateMutability": "nonpayable",
      "type": "function"
    }
  ],
  "bytecode": "0x608060405234801561001057600080fd5b5033600160006101000a81548173ffffffffffffffffffffffffffffffffffffffff021916908373ffffffffffffffffffffffffffffffffffffffff16021790555061092b806100616000396000f3fe60806040526004361061003f5760003560e01c80632438628c146100445780633ccfd60b1461008357806340990e30146100ae578063f851a440146100ca575b600080fd5b34801561005057600080fd5b5061006b600480360381019061006691906104ce565b6100f5565b60405161007a939291906106e5565b60405180910390f35b34801561008f57600080fd5b5061009861012c565b6040516100a591906106ca565b60405180910390f35b6100c860048036038101906100c391906104f7565b6102c8565b005b3480156100d657600080fd5b506100df61047e565b6040516100ec919061060f565b60405180910390f35b60006020528060005260406000206000915090508060000154908060010154908060020160009054906101000a900460ff16905083565b6000806000803373ffffffffffffffffffffffffffffffffffffffff1673ffffffffffffffffffffffffffffffffffffffff168152602001908152602001600020905042816001015411156101b6576040517f08c379a00000000000000000000000000000000000000000000000000000000081526004016101ad9061066a565b60405180910390fd5b60008160000154116101fd576040517f08c379a00000000000000000000000000000000000000000000000000000000081526004016101f4906106aa565b60405180910390fd5b600015158160020160009054906101000a900460ff16151514610255576040517f08c379a000000000000000000000000000000000000000000000000000000000815260040161024c9061062a565b60405180910390fd5b60018160020160006101000a81548160ff0219169083151502179055503373ffffffffffffffffffffffffffffffffffffffff166108fc82600001549081150290604051600060405180830381858888f193505050501580156102bc573d6000803e3d6000fd5b50806000015491505090565b600160009054906101000a900473ffffffffffffffffffffffffffffffffffffffff1673ffffffffffffffffffffffffffffffffffffffff163373ffffffffffffffffffffffffffffffffffffffff1614610358576040517f08c379a000000000000000000000000000000000000000000000000000000000815260040161034f9061064a565b60405180910390fd5b60008060008473ffffffffffffffffffffffffffffffffffffffff1673ffffffffffffffffffffffffffffffffffffffff16815260200190815260200160002060000154146103dc576040517f08c379a00000000000000000000000000000000000000000000000000000000081526004016103d39061068a565b60405180910390fd5b604051806060016040528034815260200182426103f9919061072d565b8152602001600015158152506000808473ffffffffffffffffffffffffffffffffffffffff1673ffffffffffffffffffffffffffffffffffffffff168152602001908152602001600020600082015181600001556020820151816001015560408201518160020160006101000a81548160ff0219169083151502179055509050505050565b600160009054906101000a900473ffffffffffffffffffffffffffffffffffffffff1681565b6000813590506104b3816108c7565b92915050565b6000813590506104c8816108de565b92915050565b6000602082840312156104e057600080fd5b60006104ee848285016104a4565b91505092915050565b6000806040838503121561050a57600080fd5b6000610518858286016104a4565b9250506020610529858286016104b9565b9150509250929050565b61053c81610783565b82525050565b61054b81610795565b82525050565b600061055e600c8361071c565b9150610569826107fa565b602082019050919050565b6000610581600a8361071c565b915061058c82610823565b602082019050919050565b60006105a460098361071c565b91506105af8261084c565b602082019050919050565b60006105c760128361071c565b91506105d282610875565b602082019050919050565b60006105ea600b8361071c565b91506105f58261089e565b602082019050919050565b610609816107c1565b82525050565b60006020820190506106246000830184610533565b92915050565b6000602082019050818103600083015261064381610551565b9050919050565b6000602082019050818103600083015261066381610574565b9050919050565b6000602082019050818103600083015261068381610597565b9050919050565b600060208201905081810360008301526106a3816105ba565b9050919050565b600060208201905081810360008301526106c3816105dd565b9050919050565b60006020820190506106df6000830184610600565b92915050565b60006060820190506106fa6000830186610600565b6107076020830185610600565b6107146040830184610542565b949350505050565b600082825260208201905092915050565b6000610738826107c1565b9150610743836107c1565b9250827fffffffffffffffffffffffffffffffffffffffffffffffffffffffffffffffff03821115610778576107776107cb565b5b828201905092915050565b600061078e826107a1565b9050919050565b60008115159050919050565b600073ffffffffffffffffffffffffffffffffffffffff82169050919050565b6000819050919050565b7f4e487b7100000000000000000000000000000000000000000000000000000000600052601160045260246000fd5b7f7061696420616c72656164790000000000000000000000000000000000000000600082015250565b7f6f6e6c792061646d696e00000000000000000000000000000000000000000000600082015250565b7f746f6f206561726c790000000000000000000000000000000000000000000000600082015250565b7f6b696420616c7265616479206578697374730000000000000000000000000000600082015250565b7f616d6f756e742069732030000000000000000000000000000000000000000000600082015250565b6108d081610783565b81146108db57600080fd5b50565b6108e7816107c1565b81146108f257600080fd5b5056fea264697066735822122095eda7a82f9496323a03c65271ad0a3b989408a1ae7c9c077e51bda31848f85e64736f6c63430008030033",
  "immutableReferences": {},
  "source": "pragma solidity=0.8.3;\n\ncontract Trust {\n    \n    struct Kid {\n        uint amount;\n        uint maturity;\n        bool paid;\n        \n    }\n    mapping(address => Kid) public kids;\n    \n    \n    address public admin;\n\n    constructor(){\n        admin = msg.sender;\n    }\n    \n    \n    function addKid(address kid, uint timeToMaturity) external payable {\n        require(msg.sender == admin, 'only admin');\n        require(kids[kid].amount == 0, 'kid already exists');\n        kids[kid] = Kid(msg.value, block.timestamp + timeToMaturity,false);\n\n        \n    }\n    \n    function withdraw() external returns (uint) { \n        Kid storage kid = kids[msg.sender];\n        require(kid.maturity <= block.timestamp, 'too early');\n        require(kid.amount > 0, 'amount is 0'); \n        require(kid.paid == false, 'paid already');\n        kid.paid = true;\n        payable(msg.sender).transfer(kid.amount);\n\t    return kid.amount;\n        \n        \n    }\n    \n    \n}\n\n",
  "sourcePath": "/home/bob/Downloads/nervos_forcebridge_support_dapp/contracts/Trust.sol",
  "compiler": {
    "name": "solc",
    "version": "0.8.3+commit.8d00100c.Linux.g++"
  },
  "schemaVersion": "3.3.4",
  "updatedAt": "2021-08-13T04:42:15.295Z",
  "devdoc": {
    "kind": "dev",
    "methods": {},
    "version": 1
  },
  "userdoc": {
    "kind": "user",
    "methods": {},
    "version": 1
  }
}